:100000000C9466000C9474080C94A1080C948E0057
:100010000C948E000C948E000C948E000C94180896
:100020000C948E000C948E000C948E000C948E0018
:100030000C948E000C948E000C948E000C948E0008
:100040000C94CE080C948E000C941E040C946C043A
:100050000C948E000C948E000C948E000C948E00E8
:100060000C948E000C948E000200000000240027E7
:10007000002A0000000000250028002B00000000DE
:1000800000230026002900040404040404040402DC
:100090000202020202030303030303010204081025
:1000A00020408001020408102001020408102000F2
:1000B0000000070002010000030406000000000029
:1000C00000000000C602DA053006BF0211241FBE80
:1000D000CFEFD8E0DEBFCDBF12E0A0E0B1E0EEE2AE
:1000E000F7E102C005900D92AC31B107D9F712E0EB
:1000F000ACE1B2E001C01D92A13FB107E1F710E011
:10010000CAECD0E004C02297FE010E94720BC43CEE
:10011000D107C9F70E9481060C948A0B0C94000049
:10012000CF93DF93BC018230910510F462E070E060
:10013000A091EF02B091F002ED01E0E0F0E040E0CC
:1001400050E021C0888199818617970769F48A81D8
:100150009B81309719F09383828304C09093F002BF
:100160008093EF02FE0134C06817790738F4411517
:10017000510519F08417950708F4AC01FE018A8136
:100180009B819C01E9012097E9F641155105A9F1F0
:10019000CA01861B970B049708F4BA01E0E0F0E06F
:1001A0002AC08D919C91119784179507F9F46417D3
:1001B000750781F412968D919C911397309719F0E1
:1001C0009383828304C09093F0028093EF02FD0139
:1001D00032964CC0CA01861B970BFD01E80FF91F30
:1001E0006193719302978D939C9340C0FD0182812E
:1001F00093819C01D9011097A1F68091ED02909115
:10020000EE02892B41F48091CB019091CC01909327
:10021000EE028093ED024091CD015091CE01411547
:10022000510541F44DB75EB78091C9019091CA0163
:10023000481B590B2091ED023091EE02CA01821B3E
:10024000930B8617970780F0AB014E5F5F4F8417C3
:10025000950750F0420F531F5093EE024093ED026A
:10026000F9016193719302C0E0E0F0E0CF01DF910A
:10027000CF910895CF93DF93009709F450C0EC011C
:1002800022971B821A82A091EF02B091F002109780
:1002900009F140E050E0AC17BD0708F1BB83AA8329
:1002A000FE0121913191E20FF31FAE17BF0779F4E0
:1002B0008D919C911197280F391F2E5F3F4F3983E5
:1002C000288312968D919C9113979B838A83411565
:1002D000510571F4D093F002C093EF0220C0129642
:1002E0008D919C911397AD01009711F0DC01D3CF54
:1002F000FA01D383C28321913191E20FF31FCE170C
:10030000DF0769F488819981280F391F2E5F3F4FDD
:10031000FA01318320838A819B8193838283DF91D9
:10032000CF910895A0E0B0E0E8E9F1E00C943B0B38
:100330006C01009729F4CB010E9490006C01C1C0B0
:100340008EEF882E8FEF982E8C0C9D1C8601060F49
:10035000171F0815190508F4B2C0F401A081B18176
:10036000A617B707B8F0A530B10508F4AAC0CD01AB
:1003700004978617970708F4A4C01297A61BB70B1B
:10038000F801A193B193D4016D937C93CF010E94A6
:100390003A0197C07B01EA1AFB0AEEEFFFEFEE0E7F
:1003A000FF1E36016A0E7B1EC091EF02D091F00253
:1003B00044245524AA24BB244AC0C615D705E1F518
:1003C000488159814E155F05B8F1CA0104978E1511
:1003D0009F05B0F41296A40FB51FF401B183A0835A
:1003E0002A813B814114510431F0D20113963C9390
:1003F0002E93129766C03093F0022093EF0261C0F3
:100400008A819B81F80193838283425050404E1928
:100410005F09518340834114510431F0D201139696
:100420001C930E93129704C01093F0020093EF02F6
:10043000F4017183608345C088819981A816B9064B
:1004400008F45C012E018A819B819C01E9012097BF
:1004500009F0B3CF8091ED029091EE0286159705D9
:10046000E9F4A616B706D0F42091CD013091CE0163
:100470002115310541F42DB73EB78091C901909106
:10048000CA01281B390B02171307C8F41093EE0298
:100490000093ED02D4016D937C9313C0CB010E94B5
:1004A0009000EC01009759F0F40140815181B601B0
:1004B0000E946702C6010E943A016E0102C0CC246C
:1004C000DD24C601CDB7DEB7E0E10C94570BFB018C
:1004D000DC0102C001900D9241505040D8F70895C0
:1004E000FB01DC0101900D920020E1F70895FB0172
:1004F0009F01E8944230C4F04532B4F44A3029F404
:1005000097FB1EF4909581959F4F642F77270E944B
:10051000760B805D8A330CF0895D8193CB01009767
:10052000A1F716F45DE251931082C9010C94980270
:10053000DC01FC01672F71917723E1F7329704C04A
:100540007C916D9370836291AE17BF07C8F30895D5
:100550008130910551F46F5F7F4F81F482E292E028
:1005600060E071E00E946E0A0895892B39F46F5F94
:100570007F4F21F482E292E00E94EC0A089580E02D
:1005800090E06FEF7FEF0E94A802089581E090E075
:100590006FEF7FEF0E94A802089581EB92E040E0A8
:1005A00052EC61E070E00E94A70481EB92E00E94AF
:1005B000D8058823D1F30895EF92FF920F931F93EC
:1005C000CF93DF93E0901E02F0901F02C0E0D0E0D6
:1005D00081EB92E060E071E00E9486072196C431D1
:1005E000D105B1F780911C0290911D028F5F9F4F42
:1005F00031F481EB92E061E071E00E948307809129
:100600001E0290911F02FC01EE0FFF1FE80FF91F61
:10061000EE0FFF1FEE52FE4F6081718181EB92E081
:100620000E94860781EB92E063E071E00E948607FA
:1006300002ED11E0C0E0D0E080911C0290911D021B
:10064000C817D90731F481EB92E061E071E00E94B4
:100650008307F801828193818E159F0531F46081B3
:10066000718181EB92E00E94860721960A5F1F4FFD
:10067000C930D10509F7DF91CF911F910F91FF90FC
:10068000EF900895EF92FF920F931F93DF93CF9314
:10069000CDB7DEB76C970FB6F894DEBF0FBECDBFF7
:1006A000BC0180911C0290911D02860F971F9093B0
:1006B0001D0280931C0297FF06C088E090E0909393
:1006C0001D0280931C0280911C0290911D020997CB
:1006D00034F08FEF9FEF90931D0280931C024091A6
:1006E0001C0250911D02FA01EE0FFF1FE40FF51FCF
:1006F000EE0FFF1FE053FE4F2481358180911E02D3
:1007000090911F022817390731F04F5F5F4F19F0A2
:10071000CB010E94420348E0E42EF12CEC0EFD1EBA
:10072000C70164E171E00E94880A60911C02709127
:100730001D028E010F5F1F4FC8014AE00E94BB0AD5
:10074000C701B8010E94370ABC0181EB92E00E9408
:10075000CC07C8010E94EC0AC7010E94F20A36E1E8
:10076000E32EF12CEC0EFD1EC7016CE271E00E943D
:10077000880A8E01015F1F4F60911E0270911F0257
:10078000C8014AE00E94BB0AC701B8010E94370AAB
:10079000BC0181EB92E00E94CC07C8010E94EC0AE8
:1007A000C7010E94F20A6C960FB6F894DEBF0FBE26
:1007B000CDBFCF91DF911F910F91FF90EF900895E2
:1007C00081EB92E00E942E0518161906ACF581EB1C
:1007D00092E00E945F05909321028093200281366F
:1007E000910531F48FEF9FEF0E9442030E94DC02DB
:1007F00080912002909121028A37910531F481E0A5
:1008000090E00E9442030E94DC02809120029091BD
:1008100021028536910581F480911C0290911D0280
:1008200090931F0280931E028FEF9FEF90931D0203
:1008300080931C020E94DC02089508951F920F927B
:100840000FB60F9211242F933F934F938F939F9343
:10085000EF93FF938091C00082FD1DC04091C600C0
:100860002091690230916A022F5F3F4F2F733070E1
:1008700080916B0290916C022817390771F0E0911A
:100880006902F0916A02E75DFD4F408330936A028E
:100890002093690202C08091C600FF91EF919F9161
:1008A0008F914F913F912F910F900FBE0F901F90FE
:1008B0001895E091BD02F091BE02E05CFF4F81917E
:1008C000919120813181821B930B8F739070892BC2
:1008D00011F00E941D0408951F920F920FB60F92FF
:1008E00011242F933F938F939F93EF93FF93209126
:1008F000AD023091AE028091AF029091B002281704
:10090000390731F48091C1008F7D8093C10014C0FC
:10091000E091AF02F091B002E359FD4F2081809148
:10092000AF029091B00201968F7390709093B002D5
:100930008093AF022093C600FF91EF919F918F911A
:100940003F912F910F900FBE0F901F901895AF926F
:10095000BF92DF92EF92FF920F931F93CF93DF939B
:10096000EC017A018B01DD24403081EE580780E0F4
:10097000680780E0780711F0DD24D39491E0A92E78
:10098000B12CEC89FD89DD2069F0C50108A002C009
:10099000880F991F0A94E2F7808360E079E08DE385
:1009A00090E005C0108260E874E88EE190E0A80154
:1009B00097010E94170B21503040404050405695FF
:1009C00047953795279580E12030380720F0DD20C6
:1009D00011F0DD24D6CFE889F9893083EA89FB89D3
:1009E000208319A2EE89FF89408121E030E0C9010E
:1009F0000C8C02C0880F991F0A94E2F7482B4083A1
:100A0000EE89FF894081C9010D8C02C0880F991FB2
:100A10000A94E2F7482B4083EE89FF894081C9019F
:100A20000E8C02C0880F991F0A94E2F7482B40836E
:100A3000EE89FF8980810F8C02C0220F331F0A9438
:100A4000E2F7209528232083DF91CF911F910F910A
:100A5000FF90EF90DF90BF90AF900895DC011C965F
:100A6000ED91FC911D97E05CFF4F219131918081C8
:100A70009181281B390B2F733070C9010895DC0157
:100A80001C96ED91FC911D97E05CFF4F2081318118
:100A9000E054F040DF01AE5BBF4F8D919C91119708
:100AA0002817390719F42FEF3FEF07C08D919C915C
:100AB000E80FF91F8081282F30E0C9010895DC017B
:100AC0001C96ED91FC911D97E05CFF4F20813181D8
:100AD000E054F040DF01AE5BBF4F8D919C911197C8
:100AE0002817390719F42FEF3FEF10C08D919C9113
:100AF0001197E80FF91F20818D919C911197019614
:100B00008F73907011969C938E9330E0C901089575
:100B1000DC0191968C919197882339F05496ED9150
:100B2000FC915597808186FFF9CF91961C9208958C
:100B3000CF93DF93EC01EE85FF85E05CFF4F2081D2
:100B40003181E054F0402F5F3F4F2F733070DF0151
:100B5000AE5BBF4F8D919C91119728173907D1F348
:100B6000E05CFF4F80819181E054F040E80FF91F75
:100B70006083EE85FF85E05CFF4F31832083EE8943
:100B8000FF89208181E090E00F8C02C0880F991FBF
:100B90000A94E2F7282B208381E089A3EC89FD8960
:100BA00080818064808381E090E0DF91CF9108951F
:100BB00081E008951092B4021092B30288EE93E09F
:100BC000A0E0B0E08093B5029093B602A093B70284
:100BD000B093B8028AE092E09093B2028093B1029F
:100BE00089E292E09093BE028093BD028DE692E08E
:100BF0009093C0028093BF0285EC90E09093C20274
:100C00008093C10284EC90E09093C4028093C3026D
:100C100080EC90E09093C6028093C50281EC90E056
:100C20009093C8028093C70282EC90E09093CA022E
:100C30008093C90286EC90E09093CC028093CB0223
:100C400084E08093CD0283E08093CE0287E080939E
:100C5000CF0285E08093D00281E08093D102089595
:100C60008AE192E09093D4028093D3021092D5024D
:100C70001092D6021092D7021092D80208958F9245
:100C80009F92AF92BF92CF92DF92EF92FF920F931B
:100C90001F93CF93DF934C016B017C01AA24BB24EB
:100CA000C0E0D0E0C601F70162814AE050E00E9456
:100CB00071078C01C6016EE20E94BA06080F191F67
:100CC000A00EB11E21960894E11CF11CC330D10581
:100CD00049F7C601F40165814AE050E00E947107BE
:100CE0009501280F391FC901DF91CF911F910F91F5
:100CF000FF90EF90DF90CF90BF90AF909F908F903C
:100D00000895CF93DF930E9416090E94CD02C9E592
:100D1000D4E00E94E0032097E1F30E945904F9CF48
:100D2000CF92DF92EF92FF920F931F93CF93DF93B7
:100D30007C016B018A01C0E0D0E00FC0D6016D914B
:100D40006D01D701ED91FC910190F081E02DC7017B
:100D50000995C80FD91F015010400115110571F7F1
:100D6000CE01DF91CF911F910F91FF90EF90DF9017
:100D7000CF900895DC01ED91FC910190F081E02D80
:100D800009950895EF92FF920F931F938C01DC0158
:100D9000ED91FC910190F081E02D6DE009957C01D1
:100DA000D801ED91FC910190F081E02DC8016AE03D
:100DB00009959C012E0D3F1DC9011F910F91FF90B8
:100DC000EF900895CF93DF93EC016115710519F44D
:100DD00020E030E00FC0DB010D900020E9F7119713
:100DE000A61BB70BE881F9810280F381E02DAD01EC
:100DF00009959C01C901DF91CF9108954F925F92AF
:100E00007F928F929F92AF92BF92CF92DF92EF929A
:100E1000FF920F931F93DF93CF93CDB7DEB7A197C8
:100E20000FB6F894DEBF0FBECDBF2C01742ECB01E0
:100E3000223008F42AE019A231E2C32ED12CCC0EC4
:100E4000DD1E822E9924AA24BB24672D752FA501AF
:100E500094010E94170B79018A01C801B701A5010D
:100E600094010E94F80A472D461B0894C108D10836
:100E70004A3014F4405D01C0495CF6014083E1143E
:100E8000F1040105110521F07E2C5F2DC801DDCF95
:100E9000C201B6010E94E206A1960FB6F894DEBF29
:100EA0000FBECDBFCF91DF911F910F91FF90EF90BB
:100EB000DF90CF90BF90AF909F908F907F905F908A
:100EC0004F900895DC012115310541F4ED91FC911D
:100ED0000190F081E02D642F099508950E94FE068F
:100EE0000895EF92FF920F931F939A01E62EFF242D
:100EF00000E010E0B801A7010E9462071F910F9166
:100F0000FF90EF9008950E94E2060895EF92FF92FD
:100F10000F931F937C010E94E2068C01C7010E947F
:100F2000C206080F191FC8011F910F91FF90EF9083
:100F30000895AF92BF92CF92DF92EF92FF920F93FC
:100F40001F93CF93DF935C016B01EE24FF24C0E07D
:100F5000D0E010C0D501ED91FC9100811181C60156
:100F6000BE010E94B109682FC501F8010995E80E7C
:100F7000F91E2196F60184819581C817D90750F38F
:100F8000C701DF91CF911F910F91FF90EF90DF90FC
:100F9000CF90BF90AF900895EF92FF920F931F9361
:100FA0007C010E9499078C01C7010E94C2069C0126
:100FB000200F311FC9011F910F91FF90EF900895ED
:100FC000813041F0813018F08230D1F409C01092A4
:100FD0006E00089580916F008D7F80936F0008955B
:100FE000809170008D7F8093700081E08093B000CD
:100FF0008091B100887F84608093B1001092B3002B
:1010000008951F93182F8091CF01811711F09FEF42
:1010100006C0E8E6F0E094918FEF8093CF01892F2E
:101020000E94E007812F60E00E947E091F910895D1
:101030001F920F920FB60F9211242F933F934F934D
:101040005F936F937F938F939F93AF93BF93EF9330
:10105000FF938091D9029091DA02A091DB02B091C6
:10106000DC020097A105B10551F1E091DD02F0919C
:10107000DE0280819091DF02892780838091D902EE
:101080009091DA02A091DB02B091DC0218161906E9
:101090001A061B06C4F48091D9029091DA02A0913D
:1010A000DB02B091DC020197A109B1098093D9025A
:1010B0009093DA02A093DB02B093DC0204C080912B
:1010C000CF010E940108FF91EF91BF91AF919F91D5
:1010D0008F917F916F915F914F913F912F910F90E1
:1010E0000FBE0F901F9018951F920F920FB60F9280
:1010F00011242F933F934F935F936F937F938F931D
:101100009F93AF93BF93EF93FF938091E0029091F1
:10111000E102892B29F0E091E002F091E1020995CA
:10112000FF91EF91BF91AF919F918F917F916F91BF
:101130005F914F913F912F910F900FBE0F901F9095
:1011400018951F920F920FB60F9211242F933F9371
:101150004F935F936F937F938F939F93AF93BF93BF
:10116000EF93FF938091E2029091E302892B29F0A3
:10117000E091E202F091E3020995FF91EF91BF91B6
:10118000AF919F918F917F916F915F914F913F911F
:101190002F910F900FBE0F901F9018951F920F92D6
:1011A0000FB60F9211242F933F938F939F93AF937A
:1011B000BF938091E8029091E902A091EA02B09178
:1011C000EB023091EC020196A11DB11D232F2D5F82
:1011D0002D3720F02D570196A11DB11D2093EC0253
:1011E0008093E8029093E902A093EA02B093EB02A5
:1011F0008091E4029091E502A091E602B091E702AD
:101200000196A11DB11D8093E4029093E502A09385
:10121000E602B093E702BF91AF919F918F913F910A
:101220002F910F900FBE0F901F901895789484B552
:10123000826084BD84B5816084BD85B5826085BDD2
:1012400085B5816085BDEEE6F0E0808181608083B8
:10125000E1E8F0E01082808182608083808181609B
:101260008083E0E8F0E0808181608083E1EBF0E062
:10127000808184608083E0EBF0E080818160808306
:10128000EAE7F0E0808184608083808182608083EF
:101290008081816080838081806880831092C1001A
:1012A0000895833071F0843028F48130A1F08230C9
:1012B00021F514C08630B1F08730D1F08430E9F4E4
:1012C00004C0809180008F7703C0809180008F7D63
:1012D00080938000089584B58F7702C084B58F7D98
:1012E00084BD08958091B0008F778093B0000895F9
:1012F0008091B0008F7D8093B0000895FF920F938E
:101300001F93F62E482F50E0CA0181559F4FFC01D4
:101310002491CA0185569F4FFC01149149575F4F94
:10132000FA0104910023C9F0222319F0822F0E94B0
:101330005109E02FF0E0EE0FFF1FED58FF4FA59190
:10134000B4919FB7F894FF2021F48C9110958123DC
:1013500002C08C91812B8C939FBF1F910F91FF90A6
:101360000895FC01848195816817790748F40190FC
:10137000F081E02D309721F0E60FF71F808108956E
:1013800080E008950F931F93CF93DF93EC018B01BF
:101390006F5F7F4F888199810E949201009711F4BD
:1013A00080E005C0998388831B830A8381E0DF91F5
:1013B000CF911F910F910895CF93DF93EC01888116
:1013C0009981892B29F08A819B818617970760F480
:1013D000CE010E94C209882341F08C819D81892B16
:1013E00019F4E881F981108281E0DF91CF910895AD
:1013F000EF92FF920F931F93CF93DF93EC017B014A
:101400006C817D81E114F104C1F04115510599F021
:101410008A01060F171FB8010E94DC09882369F0B2
:10142000888199812C813D81820F931FB7010E9491
:1014300070021D830C8381E001C080E0DF91CF91B9
:101440001F910F91FF90EF900895CF93DF93EC01E0
:1014500088819981009711F00E943A0119821882BF
:101460001D821C821B821A82DF91CF9108950F93F7
:101470001F93182F092FFB016081718144815581D1
:101480000E94F809882321F4812F902F0E94250AB9
:10149000812F902F1F910F910895EF92FF920F933C
:1014A0001F93CF93DF93EC017B018A01BA010E9465
:1014B000DC09882321F4CE010E94250A07C01D8380
:1014C0000C8388819981B7010E947002CE01DF915F
:1014D000CF911F910F91FF90EF900895CF93DF93DD
:1014E000EC01198218821B821A821D821C821E82C4
:1014F0006115710551F0DB010D900020E9F711979E
:10150000A61BB70BAD010E944D0ADF91CF91089544
:10151000CF93DF93EC01198218821B821A821D82FD
:101520001C821E826115710551F0DB010D900020B7
:10153000E9F71197A61BB70BAD010E944D0ADF9189
:10154000CF9108950F931F93182F092F61157105DF
:1015500059F0DB010D900020E9F71197A61BB70B9E
:10156000AD010E944D0A02C00E94250A812F902FD2
:101570001F910F910895EF92FF920F931F93DF93A6
:10158000CF93CDB7DEB762970FB6F894DEBF0FBE2C
:10159000CDBF8C01CB01F80111821082138212821F
:1015A0001582148216827E010894E11CF11CB70199
:1015B00050E00E947702C801B7010E94A20A629619
:1015C0000FB6F894DEBF0FBECDBFCF91DF911F9154
:1015D0000F91FF90EF900895FC01808191810E940E
:1015E0003A010895FC01808191810E943A01089599
:1015F000629FD001739FF001829FE00DF11D649FF7
:10160000E00DF11D929FF00D839FF00D749FF00D82
:10161000659FF00D9927729FB00DE11DF91F639F23
:10162000B00DE11DF91FBD01CF0111240895A1E204
:101630001A2EAA1BBB1BFD010DC0AA1FBB1FEE1F4C
:10164000FF1FA217B307E407F50720F0A21BB30B97
:10165000E40BF50B661F771F881F991F1A9469F713
:1016600060957095809590959B01AC01BD01CF016F
:1016700008952F923F924F925F926F927F928F9236
:101680009F92AF92BF92CF92DF92EF92FF920F9311
:101690001F93CF93DF93CDB7DEB7CA1BDB0B0FB61B
:1016A000F894DEBF0FBECDBF09942A8839884888D8
:1016B0005F846E847D848C849B84AA84B984C8846E
:1016C000DF80EE80FD800C811B81AA81B981CE0F65
:1016D000D11D0FB6F894DEBF0FBECDBFED0108954A
:1016E000EE0FFF1F0590F491E02D0994AA1BBB1B80
:1016F00051E107C0AA1FBB1FA617B70710F0A61B12
:10170000B70B881F991F5A95A9F780959095BC0132
:10171000CD01089510E0CAECD0E004C0FE010E94A3
:0E172000720B2296CC3CD107C9F7F894FFCF8C
:10172E00003E002D2D2D2D2D2D2D2D2D2D2D2D2D24
:10173E002D2D2D0063757272656E745F6C696E650A
:10174E005F706F736974696F6E3A200063757272A1
:10175E00656E745F706167653A2000486F6D650055
:10176E004368616E67652074656D7065726174752E
:10177E007265004368616E67652068756D6964699E
:10178E00747900526573657420666163746F727943
:10179E000043757272656E742074656D706572614A
:1017AE007475726500536574206E65772074656D6F
:1017BE0070657261747572650043757272656E74D0
:1017CE002068756D696469747900536574206E655F
:1017DE00772068756D696469747900436F6E666908
:1017EE00726D207265736574002000F1020000FFB7
:1017FE0000003B01FFFF0100400100000200530109
:10180E0000000300630100000400710101000500E7
:10181E00850101000600990102000700AA010200DD
:10182E000800BB01030000000000980590062E057D
:0C183E005F053F058805000000003F0624
:00000001FF
